:060000000A128A110C280F
:10000800FE00030EFB000A08FC000A128A110E2DDE
:100018000A128A110F28FD0183120313A001A101FE
:10002800A201A301A401A501A601A701A801A90194
:1000380083010A128A1120280A128A11E6250A1257
:100048008A11831203139F182A282B2864281F0C4F
:10005800B100310C0F39003A031D332834283928F0
:100068001F08C33904389F0057281F0CB100310CF2
:100078000F39013A031D4128422847281F08C33970
:1000880008389F0057281F0CB100310C0F39023A6D
:10009800031D4F28502855281F08C3390C389F00C6
:1000A8005728C3309F05033083120313B2009730DB
:1000B800B100B10B5D28B20B5D28831203139F14A6
:1000C800061867286828722A22082304031D6D2849
:1000D8006E28632A1F100030AA008430AB000A1271
:1000E8008A11C9260A128A11DD3083120313AA0065
:1000F8008430AB000A128A11C9260A128A11BD304F
:1001080083120313AA008430AB000A128A11C9268D
:100118000A128A113A3083120313AA008430AB0002
:100128000A128A11C9260A128A115130831203133E
:10013800AA008430AB000A128A11C9260A128A1151
:10014800CD3083120313AA008430AB000A128A113F
:10015800C9260A128A11831203138C1EB428B528E3
:10016800AF281A08A9002C2A0330AA008530AB0052
:100178000A128A11C9260A128A11FD017D08831202
:100188000313B1000310310C7C3E95007D08013942
:10019800B100B10EB10D17083106DF3931069700ED
:1001A800A4012408B1000310310C7C3E9B002408F4
:1001B8000139B100B10EB10D1D083106DF39310624
:1001C8009D00A701452AEB30AA008430AB000A1233
:1001D8008A11C9260A128A11FF30FD007D08831290
:1001E8000313B1000310310C7C3E95007D080139E2
:1001F800B100B10EB10D17083106DF39310697008D
:10020800FF30A4002408B1000310310C7C3E9B0091
:1002180024080139B100B10EB10D1D083106DF39CE
:1002280031069D00FF30A700452AF830AA00843027
:10023800AB000A128A11C9260A128A117D08831294
:100248000313AA0000300A128A1111270A128A1110
:100258001A3083120313B200F730B100B10B322900
:10026800B20B32293729831203132408AA0001305C
:100278000A128A1111270A128A111A3083120313DB
:10028800B200F730B100B10B4729B20B47294C290E
:10029800831203132708AA0002300A128A111127B1
:1002A8000A128A111A3083120313B200F730B10010
:1002B800B10B5C29B20B5C29612983120313260850
:1002C800AA0003300A128A1111270A128A110B3068
:1002D80083120313B3002630B2005D30B100B10BB6
:1002E8007329B20B7329B30B7329831203131F14D9
:1002F800452A1F1000300A128A112E270A128A1165
:10030800FD001A3083120313B200F730B100B10BAD
:100318008B29B20B8B2990297D0883120313B10016
:100328000310310C7C3E95007D080139B100B10EF7
:10033800B10D17083106DF39310697009C30AA0045
:100348008430AB000A128A11C9260A128A110130B8
:100358000A128A112E270A128A1183120313A40083
:100368001A3083120313B200F730B100B10BBA2967
:10037800B20BBA29BF29831203132408B100031052
:10038800310C7C3E9B0024080139B100B10EB10D3F
:100398001D083106DF3931069D0002300A128A1124
:1003A8002E270A128A1183120313A7001A30831208
:1003B8000313B200F730B100B10BE029B20BE0290A
:1003C800E52903300A128A112E270A128A1183128C
:1003D8000313A6000B3083120313B3002630B200B8
:1003E8005D30B100B10BF629B20BF629B30BF62933
:1003F800452A20032104031D022A032A0D2A6530F9
:10040800AA008430AB000A128A11C9260A128A117E
:10041800162A8B30AA008430AB000A128A11C9262A
:100428000A128A1183120313200C031C8811031863
:1004380088150130A0060030A106EE291F30AA0059
:100448008430AB000A128A11C9260A128A11452A79
:100458002908B100B2013208003A0319342A222AC5
:100468003108313A0319B828033A0319E728013A41
:1004780003191929073A03197D29013A0319FD2996
:10048800222A013083120313A2000030A300AD30EA
:10049800AA008430AB000A128A11C9260A128A11EE
:1004A8000B3083120313B3002630B2005D30B10065
:1004B800B10B5C2AB20B5C2AB30B5C2A722A783027
:1004C800AA008430AB000A128A11C9260A128A11BE
:1004D800831203131F14A201A301542A83120313C6
:1004E8008618772A782AD92A1F147D08AA0000308E
:1004F8000A128A1111270A128A111A308312031359
:10050800B200F730B100B10B872AB20B872A8C2AC8
:10051800831203132408AA0001300A128A11112732
:100528000A128A111A3083120313B200F730B1008D
:10053800B10B9C2AB20B9C2AA12A83120313270809
:10054800AA0002300A128A1111270A128A111A30D7
:1005580083120313B200F730B100B10BB12AB20B0A
:10056800B12AB62A831203132608AA0003300A12F6
:100578008A1111270A128A11783083120313AA00EC
:100588008430AB000A128A11C9260A128A110B306C
:1005980083120313B3002630B2005D30B100B10BF3
:1005A800D32AB20BD32AB30BD32A83120313061907
:1005B800DE2ADF2A5E2B1F1000300A128A112E272E
:1005C8000A128A11FD001A3083120313B200F730A1
:1005D800B100B10BED2AB20BED2AF22A7D08831285
:1005E8000313B1000310310C7C3E95007D080139DE
:1005F800B100B10EB10D17083106DF393106970089
:100608009C30AA008430AB000A128A11C9260A124B
:100618008A1101300A128A112E270A128A118312AE
:100628000313A4001A3083120313B200F730B10089
:10063800B10B1C2BB20B1C2B212B83120313240888
:10064800B1000310310C7C3E9B0024080139B10035
:10065800B10EB10D1D083106DF3931069D0002309B
:100668000A128A112E270A128A1183120313A7006D
:100678001A3083120313B200F730B100B10B422BCA
:10068800B20B422B472B03300A128A112E270A126B
:100698008A1183120313A6000B3083120313B300CD
:1006A8002630B2005D30B100B10B582BB20B582B7D
:1006B800B30B582B831203138619632B642B7B2BE4
:1006C800200C031C8811031888150130A00600307F
:1006D800A1060B3083120313B3002630B2005D303D
:1006E800B100B10B752BB20B752BB30B752B1A30F0
:1006F80083120313B200F730B100B10B812BB20B98
:10070800812B862B25280A128A110C28FF1B942B73
:1007180083137F1883170008840A0319FF0A080047
:100728007F087F398A000408840A0319FF0A8200B7
:100800000D3420345134753465342034613463340C
:10081000633469346F346E34203464346534733433
:1008200065346134203465346A3465346334753436
:100830007434613472343F3420340D340034533412
:1008400065342034683461342034703472346F3449
:10085000643475346334693464346F3420347534EB
:100860006E3420346534723472346F347234203410
:100870000D34003420343334293420344734753473
:10088000613472346434613472342034613420341D
:1008900045344534503452344F344D3420340D34C3
:1008A000003420343434293420344C3465346534F5
:1008B0007234203464346534203445344534503443
:1008C00052344F344D340D3400345334693465346C
:1008D000723472346134203465346E346334653478
:1008E0006E34643469346434613420340D3400343B
:1008F0000D345334653420347034723465346E34BE
:10090000643469346F342034613464346F346E3449
:1009100020340D3400345334693465347234723405
:100920006134203461347034613467346134643448
:10093000613420340D3400340D34533465342034A4
:1009400061347034613467346F342034613464341A
:100950006F346E3420340D34003453346534203415
:10096000633461346D34623469346F3420346234FA
:1009700061346E3420340D34003420343234293460
:10098000203446346C346534783469346F346E34D2
:100990006134723420340D34003420343534293439
:1009A000203449342F344F3420345334693465347F
:1009B0007234723461340D340034203431342934CB
:1009C000203445347334743469347234613472348D
:1009D00020340D34003446346C3465347834693452
:1009E0006F346E34613464346F3420340D34003429
:1009F00047347534613472346434613464346F3430
:100A000020340D3400344534733474346934723412
:100A1000613464346F3420340D3400348312031392
:100A20000C080B1C142D152D162D0B100C1F192D39
:100A30001A2D8C2D1F0CF900790C0F39003A031D6B
:100A4000222D232D4C2D1E08FD00831603131E0896
:100A500083120313A5007D08F9000310790C7C3E76
:100A600095007D080139F900F90EF90D170879068E
:100A7000DF39790697002508F90007300310F90CD3
:100A8000FF3E031D3E2D7908FA00FA0E17087A067C
:100A9000EF397A0697008B2D1F0CF900790C0F396E
:100AA000013A031D542D552D7C2D1E08A400240849
:100AB000F9000310790C7C3E9B0024080139F900F1
:100AC000F90EF90D1D087906DF3979069D008316A8
:100AD00003131E08F90007300310F90CFF3E031D35
:100AE0006C2D7908FA00FA0E831203131D087A069A
:100AF000EF397A069D008B2D1F0CF900790C0F3908
:100B0000033A031D842D852D892D1E08A6000C1384
:100B10008B2D1E08A7000C130B1D8F2D902DDF2D84
:100B20008316031381111430F0000030F10083129A
:100B300003132708F900FA017908F2007A08F30094
:100B40000A128A1162260A128A11831603130108F7
:100B50007006F83970068100C730F900AF2DF90B27
:100B6000AE2DB22DB32D8312031320032104031DD8
:100B7000BA2DBB2DC82D0130F9007908A807260829
:100B800028020318C42DC52DC72D8814C82D881020
:100B9000081CCB2DCC2DCD2D0810C730F900D02D41
:100BA000F90BCF2DD32DD42D831203130814FF304E
:100BB00081004230F900F90BDB2D00000B117C089D
:100BC0008A007B0E8300FE0E7E0E09000F30831616
:100BD0000317880089010F308316031385008312E1
:100BE00003138501831603138801831203138801FD
:100BF0000F308316031386008312031386017030AF
:100C0000831603138F0481138B150F149F131F1268
:100C10009F12831203131F083F3980389F001F144F
:100C2000203083120313AA00AA0B142E000083168F
:100C30000313071587143F30831203139705170812
:100C4000F0390C3897001D08F0390C389D000F3032
:100C50009500CF3097050F309B009D121D12831613
:100C600003138112FF3092000330831203139204A6
:100C700012158C108C1C3D2E3E2E3A2E8C10831695
:100C80000313071187108B170B170C178B16831282
:100C900003130C130B110B10831603130C141812EF
:100CA0001815831603178715CF3083160313990081
:100CB0009A01831203139817181318168316031337
:100CC00098160800F601F11F662E672E6E2EF009A9
:100CD000F109F00A0319F10AF601F60AF31F712E61
:100CE000722E7B2EF209F309F20A0319F30A01307E
:100CF000F4007408F606F701F8017008710403198E
:100D0000822E832EBA2EF501F50A912E01300310A2
:100D1000F00DF10DFF3E031D872E0130F400740825
:100D2000F507F11F942E952E862E01300310F70D36
:100D3000F80DFF3E031D962E71087302031DA22EAF
:100D400070087202031CA52EA62EAD2E7008F202AA
:100D50007108031CF303F302771401300310F10C44
:100D6000F00CFF3E031DAE2E0130F502031DB92E1F
:100D7000BA2E952E76080319BE2EBF2EC42EF70963
:100D8000F809F70A0319F80A7808F1007708F00063
:100D9000080083120313AF01B001F42E831603136E
:100DA000981CD32ED42ECE2E831203132F082A077D
:100DB000AD002B08AC000318AC0AAF1FE02EAC034B
:100DC000831203132C08AE002E08FF002D088400A8
:100DD0000A128A118A230A128A1199000130AF0778
:100DE0000318B00A0030B0072F082A07AD002B08FF
:100DF000AC000318AC0AAF1FFE2EAC038312031322
:100E00002C08AE002E08FF002D0884000A128A115B
:100E10008A230A128A11003A031D0F2F102FCE2E9B
:100E2000080083120313AB002B08831203178D00F5
:100E3000831203132A08831203178C0083160317E7
:100E40008C130C158B130B1355308D00AA308D00AD
:100E50008C140C110B108B170B1708008312031343
:100E6000AA002A08831203178D00831603178C1318
:0A0E70000C14831203170C0808008D
:08400000FF3FFF3FFF3FFF3FC0
:04400E00D420FF3F7C
:00000001FF
